:020000040000FA
:04000000A7EF18F05E
:102F0800D58E120054C0D6FF1200400ED36E040EA8
:102F1800D26E000E9B6E120080EC18F089EC17F050
:102F280097EC17F01200000ED76E060ED66E060E3E
:102F3800546EF294D00ED56E1200F2B4A6EF17F0CC
:102F4800A9EF17F0010EAAEF17F0000EACEF17F07B
:102F58001200016E01C0A9FFA69CA69EA68000F0E3
:102F680000F0A850B8EF17F01200000000000100B0
:102F7800010001000100010001006E0002002000B4
:102F880036000CEC18F0C580CAEF17F0C5B0CFEFCB
:102F980017F0D1EF17F0CAEF17F09E9612000CEC5D
:102FA80018F0C584D8EF17F0C5B4DDEF17F0DFEFE0
:102FB80017F0D8EF17F0E1EF17F01200000EADECA4
:102FC80017F0086E0850026E036AF5EC17F0000E51
:102FD800ADEC17F0086E0828026E000E3CEC18F0F5
:102FE8001200FF0E046EFF0E056E02C006F003C04D
:102FF80007F0045006260550072206C055F007C002
:1030080056F0576A586A596A5A6A5B6A5C6A1200CB
:103018000EEF18F0C7B413EF18F015EF18F00EEF15
:1030280018F0C5CF01F01F0E0116D8A41EEF18F036
:1030380020EF18F00EEF18F022EF18F0120090ECC5
:1030480017F0A00E0E6E860E0F6E010E106E000E9B
:10305800116ED0EC18F0E2EC17F002EC19F084ECE9
:1030680017F04C0E236E000E246EB9EC1CF0120003
:10307800036E000EF2BE010E046E03C0A9FF02C06B
:10308800A8FFA69EA69CA684F29E550EA76EAA0E21
:10309800A76EA68250EF18F0A6B255EF18F057EFBA
:1030A80018F050EF18F0A69404B002D0F29E01D0A8
:1030B800F28E120001C0C9FF62EF18F09EA667EFFA
:1030C80018F069EF18F062EF18F09E96C5AC6FEF34
:1030D80018F071EF18F07FEF18F0C58474EF18F04E
:1030E800C5B479EF18F07BEF18F074EF18F07FEFA4
:1030F80018F07FEF18F01200000E896E000E8A6E2D
:10310800000E8B6E926893689468E40E0F013A6F14
:103118003F0E396F2F0E386F000E616EF18E93944B
:103128009392949A939093969398939A929092925A
:10313800929492969298929A899289908994899673
:103148008998899A12005E0EF66E330EF76E000E9D
:10315800F86E00EE60F010EE90F00900F5CFEEFF8B
:10316800E550E150FAE1720EF66E2F0EF76E000E82
:10317800F86E00EE30F010EE18F00900F5CFEEFF13
:10318800E550E150FAE100EE48F00C0EEE6AE80670
:10319800FDE10001F7EF19F0280EC66E000EC56EAE
:1031A800800E016E840E026E1E0E036E000E046EFB
:1031B8000EC012F00FC013F010C014F011C015F0BB
:1031C800020ED8901236133614361536E82EE5EF6F
:1031D80018F012C005F013C006F014C007F015C0AF
:1031E80008F094EC1AF00104C86E000EC76E9486BD
:1031F8009488F28EF28C9E969D8612008A9A8A98FE
:103208008A968A908B9A000E026E000E016E02BE9C
:1032180017EF19F0025009E1080E015CD8A017EF6A
:1032280019F019EF19F01DEF19F033EF19F033EF1A
:1032380019F08A848A828A948A92014A022A02BEF2
:103248002FEF19F0025009E1080E015CD8A02FEF0A
:1032580019F031EF19F01DEF19F033EF19F01200E2
:103268000B680C68000E046E510E036E6BEC19F0BF
:1032780003C00BF004C00CF0030E0B180C10D8A4FC
:1032880048EF19F04AEF19F06AEF19F08984898636
:103298008988898A080E0A6E9D0E096E060EE82E28
:1032A800FED7092EFCD70A2EFAD7899489968998D1
:1032B800899A080E0A6E9D0E096E060EE82EFED734
:1032C800092EFCD70A2EFAD76AEF19F01200000E61
:1032D800066E000E056EC5EC17F073EF19F0C5B059
:1032E80078EF19F07AEF19F073EF19F09E9603C092
:1032F80001F004C002F05EEC18F0C790C58685EFB7
:1033080019F0C5B68AEF19F08CEF19F085EF19F0AE
:103318009E96C9CF05F0066AC58AC58894EF19F04C
:10332800C5B899EF19F09BEF19F094EF19F0C69C06
:10333800C598C59AD3EC17F0A2EF19F0C7A8A7EF64
:1033480019F0A9EF19F0A2EF19F09E9605C003F045
:1033580006C004F012000000010001000000010096
:10336800010001000100000001000100010001004E
:103378000100010001000000000000000000000042
:10338800010001000100000001000100010001002E
:103398000100000001000000010001000000010020
:1033A8000100000001000000010001000000000011
:1033B8000100010000000000010000000000010001
:1033C80001000100010000000100000001000100EF
:1033D80000000100010000000000000000000000E3
:1033E80001000100000023EC18F0000E2F6E020E01
:1033F8002E6E0D0E2D6EFC0EE82EFED72D2EFCD750
:103408000D0E2D6EFC0EE82EFED72D2EFCD70D0EC0
:103418002D6EFC0EE82EFED72D2EFCD702EC19F0EF
:10342800820E2D6EDE0EE82EFED72D2EFCD71DEF58
:103438001AF0460E096E000E0A6E440E0B6E000E50
:103448000C6E42C00DF043C00EF050EC1DF046C0AB
:1034580009F047C00AF044C00BF045C00CF042EC3C
:103468001CF02E0E076E000E086E34EC19F01DEFDE
:103478001AF01DEF1AF000EF00F020EE11F0070E21
:10348800DE6AE806FDE249EF1AF001A04EEF1AF0F5
:1034980050EF1AF062EF1AF0095011260A50122262
:1034A8000B5013220C5014220D5015220E501622C8
:1034B8000F5017221050182262EF1AF0D8900936D0
:1034C8000A360B360C360D360E360F361036D890B7
:1034D8000832073206320532043203320232013230
:1034E80001500210031004100510061007100810F0
:1034F800D8A481EF1AF083EF1AF049EF1AF011C03F
:1035080001F012C002F013C003F014C004F015C09B
:1035180005F016C006F017C007F018C008F0120032
:10352800000E096E000E0A6E000E0B6E000E0C6E79
:103538000550061007100810D8B4A5EF1AF0A7EF29
:103548001AF0E7EF1AF0010E0D6EB3EF1AF0D890EB
:1035580005360636073608360D2AB3EF1AF008AED8
:10356800B8EF1AF0BAEF1AF0ABEF1AF0BEEF1AF094
:10357800BEEF1AF0D89009360A360B360C360550CD
:10358800015C065002580750035808500458D8A048
:10359800D0EF1AF0D2EF1AF0DDEF1AF00550015E05
:1035A8000650025A0750035A0850045A0980DDEFA2
:1035B8001AF0D89008320732063205320D2EBEEFC7
:1035C8001AF0E7EF1AF009C001F00AC002F00BC0C8
:1035D80003F00CC004F01200000E066E02BEF9EFF4
:1035E8001AF0F7EF1AF001EF1BF0016C021ED8B0C9
:1035F800022A010E066E01EF1BF004BE08EF1BF055
:1036080006EF1BF00EEF1BF0036C041ED8B0042A63
:103618000EEF1BF003500410D8B415EF1BF017EF92
:103628001BF047EF1BF0010E056E21EF1BF0D89041
:1036380003360436052A21EF1BF004AE26EF1BF0F3
:1036480028EF1BF01BEF1BF02CEF1BF02CEF1BF0EF
:103658000350015C04500258D8A035EF1BF037EF37
:103668001BF03DEF1BF00350015E0450025A3DEF82
:103678001BF0D89004320332052E2CEF1BF047EFD5
:103688001BF047EF1BF00650D8B44DEF1BF04FEF7F
:103698001BF055EF1BF0016C021ED8B0022A55EF43
:1036A8001BF001C001F002C002F05BEF1BF012003A
:1036B80055C001F056C002F057C003F058C004F0DE
:1036C80059C005F05AC006F05BC007F05CC008F0AE
:1036D8002D0E096E7F0E0A6E950E0B6E4C0E0C6E3B
:1036E8002D0E0D6EF40E0E6E510E0F6E580E106EDE
:1036F80041EC1AF001C01BF002C01CF003C01DF021
:1037080004C01EF005C01FF006C020F007C021F05D
:1037180008C022F0010E1B24556E000E1C20566EA8
:10372800000E1D20576E000E1E20586E000E1F2022
:10373800596E000E20205A6E000E21205B6E000E7E
:1037480022205C6E55C01BF056C01CF057C01DF0FF
:1037580058C01EF059C01FF05AC020F05BC021F0BD
:103768005CC022F0080EC2EF1BF0D8902232213242
:1037780020321F321E321D321C321B32E82EB9EFA6
:103788001BF01BC019F01DC01AF0CBEF1BF0120084
:10379800000E066E04BED5EF1BF0D3EF1BF0DDEF75
:1037A8001BF0036C041ED8B0042A010E066EDDEF70
:1037B8001BF002BEE4EF1BF0E2EF1BF0ECEF1BF096
:1037C800016C021ED8B0022A010E061AECEF1BF09B
:1037D800000E086E000E076E03500410D8B4F7EF01
:1037E8001BF0F9EF1BF02DEF1CF0010E056E03EF37
:1037F8001CF0D89003360436052A03EF1CF004AEFB
:1038080008EF1CF00AEF1CF0FDEF1BF00EEF1CF0A8
:103818000EEF1CF0D890073608360350015C0450B0
:103828000258D8A01AEF1CF01CEF1CF023EF1CF074
:103838000350015E0450025A078023EF1CF0D89011
:1038480004320332052E0EEF1CF02DEF1CF02DEF85
:103858001CF00650D8B433EF1CF035EF1CF03BEFEA
:103868001CF0076C081ED8B0082A3BEF1CF007C0F4
:1038780001F008C002F041EF1CF012000ABE4FEF41
:103888001CF00A5006E10904D8B04DEF1CF04FEFC8
:103898001CF058EF1CF00CBE54EF1CF056EF1CF057
:1038A80085EF1CF058EF1CF04A504B10D8A45FEF7E
:1038B8001CF061EF1CF067EF1CF0F29486EC17F037
:1038C800898067EF1CF040C001F041C002F0000E93
:1038D800046E0A0E036ECCEC1BF001504A5C4B5090
:1038E800800A0D6E0250800A0D58D8A07EEF1CF099
:1038F80080EF1CF085EF1CF0899085EF1CF085EFB8
:103908001CF009500A10D8A48CEF1CF08EEF1CF0A4
:10391800B8EF1CF00B2806E10C28D8A496EF1CF091
:1039280098EF1CF0B8EF1CF04A504B10D8A49FEF4A
:103938001CF0A1EF1CF0A7EF1CF0F29486EC17F036
:103948008980A7EF1CF040504A1807E141504B18F6
:10395800D8A4B1EF1CF0B3EF1CF0B8EF1CF08990BD
:10396800B8EF1CF0B8EF1CF01200000E276E000E26
:10397800266E27BEC9EF1CF0275009E1040E265C0D
:10398800D8A0C9EF1CF0CBEF1CF0CFEF1CF0EDEF87
:103998001CF0EDEF1CF05CEC1BF0010E1916265024
:1039A8002324D96E27502420DA6E19C0DFFF264A57
:1039B800272A27BEE9EF1CF0275009E1040E265CF0
:1039C800D8A0E9EF1CF0EBEF1CF0CFEF1CF0EDEF07
:1039D8001CF023C0D9FF24C0DAFFDE04D8A4F7EF17
:1039E8001CF0F9EF1CF0FCEF1CF08984FCEF1CF0D4
:1039F80020EE01F02350D9262450DA22DE04D8A480
:103A080008EF1DF00AEF1DF00DEF1DF089860DEF90
:103A18001DF020EE02F02350D9262450DA22DE04CD
:103A2800D8A419EF1DF01BEF1DF01EEF1DF08988BB
:103A38001EEF1DF020EE03F02350D9262450DA2281
:103A4800DE04D8A42AEF1DF02CEF1DF02FEF1DF097
:103A5800898A2FEF1DF020EE04F02350D926245038
:103A6800DA22000EDF6E20EE05F02350D92624500E
:103A7800DA22000EDF6E20EE06F02350D9262450FD
:103A8800DA22000EDF6E20EE07F02350D9262450EC
:103A9800DA22000EDF6E1200000E126E000E116E9A
:103AA800000E146E000E136E000E166E000E156ECC
:103AB800000E186E000E176E09C0D9FF0AC0DAFF93
:103AC800DECF01F0DDCF02F0000E046E0A0E036EA9
:103AD800CCEC1BF001C011F002C012F009C0D9FFF4
:103AE8000AC0DAFFDECF01F0DDCF02F0000E046E6F
:103AF8000A0E036EF0EC1AF001C013F002C014F0C5
:103B08000BC0D9FF0CC0DAFFDECF01F0DDCF02F029
:103B1800000E046E0A0E036ECCEC1BF001C015F00B
:103B280002C016F00BC0D9FF0CC0DAFFDECF01F0DF
:103B3800DDCF02F0000E046E0A0E036EF0EC1AF0F0
:103B480001C017F002C018F0A1EC17F00009D8B4B2
:103B5800B0EF1DF0B2EF1DF07BEF1EF04A4A4B2A82
:103B6800F29486EC17F040504A5C4B50800A0F6E76
:103B78004150800A0F58D8A0C4EF1DF0C6EF1DF0C1
:103B88007BEF1EF0000E4B6E000E4A6E000E1A6E92
:103B9800000E196E1ABEDAEF1DF01A5009E1080E70
:103BA800195CD8A0DAEF1DF0DCEF1DF0E0EF1DF096
:103BB8003DEF1EF03DEF1EF011C001F012C002F003
:103BC800000E046E010E036E19C005F01AC006F04F
:103BD8007CEC1EF013C001F014C002F0000E046E5D
:103BE800020E036E19C005F01AC006F07CEC1EF038
:103BF80015C001F016C002F0000E046E030E036E2D
:103C080019C005F01AC006F07CEC1EF017C001F0D0
:103C180018C002F0000E046E040E036E19C005F001
:103C28001AC006F07CEC1EF00DC001F00EC002F0C8
:103C3800000E046E050E036E19C005F01AC006F0DA
:103C48007CEC1EF08A848A948A9A8A988A968A904A
:103C58008B9A194A1A2A1ABE3BEF1EF01A5009E12C
:103C6800080E195CD8A03BEF1EF03DEF1EF0E0EF08
:103C78001DF08A828A920BC0D9FF0CC0DAFFDE5091
:103C8800DE10D8A44AEF1EF04CEF1EF070EF1EF0C5
:103C980009C0D9FF0AC0DAFF010EDBBE5DEF1EF0D6
:103CA800010EDB5008E1DE04D8A05DEF1EF05FEFE7
:103CB8001EF070EF1EF009C0D9FF0AC0DAFFDE0659
:103CC800000EDD5A0BC0D9FF0CC0DAFF3C0EDE6EC9
:103CD800000EDD6E70EF1EF00BC0D9FF0CC0DAFFCE
:103CE800DE06000EDD5A7BEF1EF07BEF1EF01200A1
:103CF800000E086E000E076E01500210D8A487EF60
:103D08001EF089EF1EF098EF1EF0D8900534D96E9A
:103D18000634DA6E300ED926000EDA22DECF07F02E
:103D2800DDCF08F08AEF1FF001040210D8A49FEF3E
:103D38001EF0A1EF1EF0B0EF1EF0D8900534D96E3A
:103D48000634DA6EE00ED926000EDA22DECF07F04E
:103D5800DDCF08F08AEF1FF0020E01180210D8A478
:103D6800B8EF1EF0BAEF1EF0C9EF1EF0D890053478
:103D7800D96E0634DA6ED00ED926000EDA22DECFDE
:103D880007F0DDCF08F08AEF1FF0030E01180210CC
:103D9800D8A4D1EF1EF0D3EF1EF0E2EF1EF0D890BA
:103DA8000534D96E0634DA6EC00ED926000EDA2232
:103DB800DECF07F0DDCF08F08AEF1FF0040E011800
:103DC8000210D8A4EAEF1EF0ECEF1EF0FBEF1EF095
:103DD800D8900534D96E0634DA6EB00ED926000EA6
:103DE800DA22DECF07F0DDCF08F08AEF1FF0050EEC
:103DF80001180210D8A403EF1FF005EF1FF014EF0D
:103E08001FF0D8900534D96E0634DA6EA00ED92684
:103E1800000EDA22DECF07F0DDCF08F08AEF1FF0C0
:103E2800060E01180210D8A41CEF1FF01EEF1FF099
:103E38002DEF1FF0D8900534D96E0634DA6E900E47
:103E4800D926000EDA22DECF07F0DDCF08F08AEFA0
:103E58001FF0070E01180210D8A435EF1FF037EF36
:103E68001FF046EF1FF0D8900534D96E0634DA6E8D
:103E7800800ED926000EDA22DECF07F0DDCF08F05B
:103E88008AEF1FF0080E01180210D8A44EEF1FF099
:103E980050EF1FF05FEF1FF0D8900534D96E06344D
:103EA800DA6E700ED926000EDA22DECF07F0DDCFEB
:103EB80008F08AEF1FF0090E01180210D8A467EF66
:103EC8001FF069EF1FF08AEF1FF0D8900534D96E04
:103ED8000634DA6E600ED926000EDA22DECF07F03D
:103EE800DDCF08F08AEF1FF08AEF1FF08AEF1FF08E
:103EF8008AEF1FF08AEF1FF08AEF1FF08AEF1FF09A
:103F08008AEF1FF08AEF1FF08AEF1FF003040410F6
:103F1800D8A491EF1FF093EF1FF09FEF1FF0070455
:103F28000810D8A49AEF1FF09CEF1FF09FEF1FF026
:103F38008A8AFFEF1FF0020E03180410D8A4A7EF17
:103F48001FF0A9EF1FF0B5EF1FF007040810D8A461
:103F5800B0EF1FF0B2EF1FF0B5EF1FF08A88FFEF48
:103F68001FF0030E03180410D8A4BDEF1FF0BFEF15
:103F78001FF0CBEF1FF007040810D8A4C6EF1FF0FE
:103F8800C8EF1FF0CBEF1FF08A86FFEF1FF0040E7B
:103F980003180410D8A4D3EF1FF0D5EF1FF0E1EFFA
:103FA8001FF007040810D8A4DCEF1FF0DEEF1FF0A5
:103FB800E1EF1FF08A80FFEF1FF0050E03180410D1
:103FC800D8A4E9EF1FF0EBEF1FF0FFEF1FF0070495
:103FD8000810D8A4F2EF1FF0F4EF1FF0FFEF1FF066
:103FE8008B8AFFEF1FF0FFEF1FF0FFEF1FF0FFEFCF
:083FF8001FF0FFEF1FF01200A3
:020000040020DA
:08000000FFFFFFFFFFFFFFFF00
:020000040030CA
:0E000000FF281F3CFFBF85FF03C003E0034045
:00000001FF
