:020000040000FA
:040000007AEF00F0A3
:100008002B82D9CF22F0DACF23F09EA60EEF00F094
:1000180010EF00F074EF00F0C698C6BC16EF00F0C1
:1000280018EF00F01FEF00F0C6AE1DEF00F01FEF55
:1000380000F025EF00F0C9CF05F0066AC69CC69E01
:10004800C688C7BA2AEF00F02CEF00F04CEF00F09A
:10005800C7B431EF00F033EF00F04CEF00F0C9CF38
:1000680005F0066AC68839EF00F0C7A03EEF00F039
:1000780040EF00F039EF00F0C9CF03F0046A03C085
:1000880020F004C021F0D7EC00F0C68871EF00F032
:10009800C7BA51EF00F053EF00F071EF00F0C7A4BA
:1000A80058EF00F05AEF00F071EF00F0C9CF05F0FB
:1000B800066AC79060EF00F0C7B065EF00F067EF21
:1000C80000F060EF00F069EF00F0030EC96EC6881B
:1000D8008B8471EF00F071EF00F09E9674EF00F0E2
:1000E80023C0DAFF22C0D9FF2B92110095EF01F04F
:1000F80015C01CF016C01DF0000E1F6E000E1E6EFF
:100108001FBE90EF00F01F5009E1080E1E5CD8A03A
:1001180090EF00F092EF00F096EF00F0D6EF00F0CD
:10012800D6EF00F01EC017F01CC018F01DC019F063
:10013800172AA2EF00F0193419321832172E9FEF40
:1001480000F018C01AF019C01BF01AA0AEEF00F0AA
:10015800B0EF00F0BAEF00F00D0E1E24D96E000EBD
:100168001F20DA6E010EDF6EC4EF00F00D0E1E24A4
:10017800D96E000E1F20DA6E000EDF6EC4EF00F09D
:100188001E4A1F2A1FBED2EF00F01F5009E1080EB9
:100198001E5CD8A0D2EF00F0D4EF00F096EF00F08C
:1001A800D6EF00F01200630E20182110D8A4DFEF5C
:1001B80000F0E1EF00F0E7EF00F0FF0E026EFE0E38
:1001C800016EE7EF00F0014A022A01500210D8A49C
:1001D800F0EF00F0F2EF00F0F8EF00F020C00BF0C5
:1001E80021C00CF0F8EF00F001040210D8A4FFEFD2
:1001F80000F001EF01F007EF01F020C009F021C085
:100208000AF007EF01F0020E01180210D8A40FEF50
:1002180001F011EF01F017EF01F020C007F021C045
:1002280008F017EF01F0030E01180210D8A41FEF11
:1002380001F021EF01F029EF01F020C015F021C0F5
:1002480016F07CEC00F029EF01F0120020EE07F028
:100258002450D9262550DA2214C0DFFF20EE06F0FC
:100268002450D9262550DA2213C0DFFF20EE05F0EE
:100278002450D9262550DA2212C0DFFF20EE04F0E0
:100288002450D9262550DA2211C0DFFF1200AAEC2B
:1002980001F0000E256E500E246E88EC01F00D0E54
:1002A800246E000E256E2AEC01F0000E276E020E59
:1002B800266E5FEF01F0000E256E030E246EB8EC7B
:1002C80001F05FEF01F05FEF01F07AEF00F0000E50
:1002D800896E000E8A6E000E8B6E370E926EF00ECF
:1002E800936E9468000E7E6E000E7F6E000E786E20
:1002F800000E776EF18E928A948A94889486948CF4
:10030800948E94948B941200800EC76E24C0C8FFFC
:10031800360EC66E010EC56EF28EF28C9E969D86C6
:10032800120000EE01F0140EEE6AE806FDE12B90D3
:100338002B9200014BEF01F0000ED76E060ED66E21
:10034800060E2A6EF294DF0ED56E12006BEC01F0E9
:10035800B1EC01F0A0EC01F01200300ED36E040EE7
:10036800D26E000E9B6E120024C028F025C029F022
:02037800120071
:020000040020DA
:08000000FFFFFFFFFFFFFFFF00
:020000040030CA
:0E000000FF281F1EFF8881FF03C003E003409E
:00000001FF
